:020000021000EC
:10B0000000400020E9EA010029EB01002BEB0100E0
:10B010000000000000000000000000000000000030
:10B020000000000000000000000000002DEB010007
:10B0300000000000000000002FEB010031EB0100D8
:10B040002DC1010033EB0100DDCB010033EB01002A
:10B0500033EB0100000000009DC2010033EB010052
:10B0600033EB0100C9BC010033EB010033EB0100FD
:10B0700033EB010033EB010033EB010033EB010054
:10B0800033EB01002DB3010033EB010033EB010082
:10B0900009B4010033EB010055F0010033EB01006E
:10B0A00033EB010033EB0100000000000000000062
:10B0B0000000000000000000000000000000000090
:10B0C00010B5064C2378002B07D1054B002B02D07E
:10B0D000044800E000BF0123237010BD9020002031
:10B0E000000000007CFD0100044B10B5002B03D0D4
:10B0F0000349044800E000BF10BDC0460000000046
:10B10000942000207CFD0100164B002B00D1144B35
:10B110009D46402292029A1A924600218B460F4683
:10B120001348144A121A00F065F80F4B002B00D098
:10B1300098470E4B002B00D09847002000210400B8
:10B140000D000D48002802D00C4800E000BF00F0C0
:10B150002DF82000290002F0B7F800F011F8C046E1
:10B160000000080000400020000000000000000077
:10B1700090200020102800200000000000000000A7
:10B18000084B10B50400002B02D0002100E000BFE6
:10B19000054B1868836A002B00D09847200000F008
:10B1A00031F8C0460000000034FC010070B50026F4
:10B1B0000C4D0D4C641BA410A64209D1002604F0CE
:10B1C0002DFD0A4D0A4C641BA410A64205D170BD8A
:10B1D000B300EB5898470136EEE7B300EB589847B9
:10B1E0000136F2E7882000208820002088200020F7
:10B1F0008C20002003001218934200D17047197070
:10B200000133F9E7FEE7C046A02310B55B00984282
:10B2100008D1074B1B78002B05D0064B1868064B4E
:10B220001B68984710BD0222044B1A70F5E7C04610
:10B23000AC200020B4200020B0200020AD20002051
:10B24000002300B583B00193064B074A69460748BF
:10B25000009300F097FC002802D10122044B1A70E1
:10B2600003B000BD0600000309B2010038FC010074
:10B27000AD200020F0B54F464646D646C0B5040086
:10B2800082B00D1E9046994637D001282BD0002859
:10B2900031D18023204E5B009A463378002B28D092
:10B2A0001E4F032B2ED0022B31D04A461C4B3800A8
:10B2B0001C701C4B00211D601B4B1A600123424671
:10B2C0000093534600F0DAFC33783800022B16D096
:10B2D00000F0BAFC03230020337002B01CBC90467F
:10B2E0009946A246F0BD01230B4E9A463378002BB7
:10B2F000D6D10820F1E70720EFE70E20EDE700F0B8
:10B30000B1FCE7E7380000F0B1FC022333703800ED
:10B3100000F0B0FCC9E7C046AD20002038FC0100B9
:10B32000AC200020B0200020B4200020A021F0B5E7
:10B330000023C6462B4A490000B5535004315350F0
:10B3400004315350043153504C395350043153504D
:10B35000254B1B68002B35D0244900265458244A1D
:10B36000244F1268A41A00222402240A904602E004
:10B37000002D18D02B001A68A24214D8A41AB618AF
:10B380001A7CDD69002AF3D0424699691A745A6919
:10B390003B68002B1FD0100098470028E8D000F031
:10B3A000BDFC002DE6D11449144A0B7812789A425C
:10B3B0000BD0134A9B009E5080218023114A5B00D2
:10B3C0004903D15004BC9046F0BD0132D3B2022BE8
:10B3D00004D00B70EDE708009047C9E700230B701D
:10B3E000E7E7C04600100140D82000200405000017
:10B3F000D4200020B8200020D1200020D020002020
:10B40000C820002000E100E0F0B54E46DE46574679
:10B410004546E0B5C74BC84A1B68C84999460978F4
:10B42000137889B0994200D176E10133DBB2022B67
:10B4300000D15EE11370C24A9B009D584B465B19D8
:10B440001B02BC4A1B0A0593136001230493BD4BE6
:10B4500000201E78BC4B37001B689A46B94B5B78BE
:10B460009846B84B5B680193B64B9B780293B74BF9
:10B470001B781A00079200220693934653460092C7
:10B4800047451DD001997A00D2198C46013702999F
:10B49000FFB2791A4C1EA141D200494262440F40CA
:10B4A0001178022900D19CE00329E9D1002BE7D0D3
:10B4B0001874DB69002BFBD1012200924745E1D1D2
:10B4C000009A94465A46002A00D0E8E16246002AD3
:10B4D00000D0E1E19C4B049A1B680593002A00D040
:10B4E00020E15246D31A5A1E93410024DBB2049342
:10B4F000904B00961B689946059B9C46002303933E
:10B500009A469846924B65469B46002C30D062681E
:10B51000A1682000E4694B46D31A1B021B0A5B4555
:10B5200056D85B1803604246426082600122027472
:10B530004246C261002D00D18CE02A689A4200D3B5
:10B5400081E0009E2900844603E00A689A4200D305
:10B5500084E00800C9699B1A0029F6D10200604600
:10B560009446009603606346C161D861002CCED139
:10B570005246009EB7427BD0019A73009B199446B5
:10B580000136029AF6B2921B511E8A41DB006344D7
:10B5900019785242164001220129EBD15868027CE9
:10B5A000002AE7D192469A6800964260D968816085
:10B5B0001E69C6605B698361069B002B55D05246AD
:10B5C0009A464B46D31A1B0242601B0A5B45A8D918
:10B5D0004B469A1A1202120A8A4228D28B1A036028
:10B5E000A1E75468002B00D14AE79C4200D182E0D9
:10B5F000009A1900944602E0944206D01100CA69EC
:10B60000002AF9D1624600923AE76246039100921D
:10B610008C4200D171E022680399E469CC61002C6E
:10B6200000D12DE721688C466244226028E743461A
:10B63000036043608360012303744346C361002DAC
:10B6400008D000232A68D31A2B600123C561039315
:10B6500005005AE701230500039356E7009606000C
:10B66000D21A60460A60B4467CE701239A4652E744
:10B67000AC46002A00D01EE1039B002B00D016E14F
:10B68000314B059A1B68934202D1049A002A24D0B8
:10B69000002B00D1CCE02F4A2F48304C81584A462D
:10B6A0008A1A12022578120A1B680332002D00D173
:10B6B00091E093421BD3A8244B4427481B021B0A4A
:10B6C000E400244D035142595B1A521A1202120A25
:10B6D0001B0203321B0A9A4263D800231B4A1370D1
:10B6E00009B03CBC90469946A246AB46F0BD13005B
:10B6F000E1E700239EE61C0003930122DB69009230
:10B70000002B00D087E70121134A916000220592A7
:10B710000132934607927EE74B46059300230025AE
:10B72000049394E600240020B446002200218046C1
:10B7300026002BE0D4200020D0200020D1200020A3
:10B74000C8200020BC200020D8200020C4200020D9
:10B75000FEFF7F000405000000100140C52000200E
:10B760001868A84200D95CE042462D1A0918D8682A
:10B770001A60DC69002807D04A46DE611E005218B4
:10B780001202120A5A6098602300049A002BE7D133
:10B7900034006646002A00D1AAE64A4A059313609F
:10B7A000A6E6435948490351484B1A682F23C0461F
:10B7B000C046C046C046C046C046C046C0468A4293
:10B7C00000D0C046013BF2D180238021404A5B007B
:10B7D0008902D15081E78025D1266D02B6008551BE
:10B7E000403E8551C0278026394DB6027F00EE517C
:10B7F0002E60012505603548334F06682F20C0466E
:10B80000C046C046C046C046C046C046C046BE420E
:10B8100000D0C0460138F2D12570934200D34AE7E8
:10B8200065E734006646002A48D1451B1D605FE687
:10B83000802080222649800288508022D220012543
:10B840002449520280000A5040380A501F4A4D6075
:10B8500010682F221C4C1600C046C046C046C04689
:10B86000C046C046C046C046A04200D0C046013EC9
:10B87000F2D18D6018490B60C046C046C046C04634
:10B88000C046C046C046C046A04200D0C046013AAD
:10B89000F2D1124A137020E70A4A13601AE6104ADE
:10B8A0000798059910700C4A069011600EE66246E2
:10B8B000044B1A60E4E60B4B1F70DDE6014A05936A
:10B8C0001360B2E7D82000200024F4008420002078
:10B8D00000E100E000100140D4200020C52000203D
:10B8E000C4200020BC200020F0B5DE4657464E465E
:10B8F00045460324E0B59B46144000D064E0002A8E
:10B9000000D161E080278025334EBF027751D223DA
:10B910008025324F6D029B00FD50403BFD500123BE
:10B920002F4D7B6099462B682F259C462D4B9846C2
:10B930002B00C046C046C046C046C046C046C046B2
:10B94000C046C44500D0C046013BF2D14B46BB6067
:10B95000C046C046C046C046C046C046C046C046B7
:10B96000C44500D0C046013DF2D15B461E4D2C704F
:10B970001E4D2B6000251E4B1C8099705A601D4B7C
:10B9800080221C601C4BC5211D701C4B52031D7076
:10B99000C0235B00F25089007358FF34A3433F3C3F
:10B9A00023437350A123DB0032600439F8507358ED
:10B9B000134A00201A40C0231B0213437350114B3B
:10B9C000FA58114B1A6000E007203CBC904699469B
:10B9D000A246AB46F0BDC04600E100E000100140C9
:10B9E000842000200024F400C5200020B82000207E
:10B9F000BC200020D8200020D0200020D120002012
:10BA0000FF00FFFF04050000D4200020094B5B6805
:10BA1000002B0AD0002A0AD0002808D00368187C1E
:10BA2000002802D159745A6170470820FCE70720AA
:10BA3000FAE7C046BC200020F0B54746CE4680B5A8
:10BA40002A4C83B0636806000F009046002B44D058
:10BA5000002842D004293ED94369002B3DD0437CC5
:10BA6000012B3CD0002399466B46DD1D00232800A6
:10BA70002B7000F0AFFA6178A3784A1CD2B29B1AFF
:10BA8000581E83415B421A402378934229D04B00D1
:10BA90005B186168DB008C466344002B21D00121D8
:10BAA0001348197013495E604158DF609960494638
:10BAB0001961414628785961627000F0ABFA802321
:10BAC000802100200C4A5B004903D15003B00CBC1C
:10BAD00090469946F0BD0720F8E70820F6E789462A
:10BAE000C2E7287800F096FA0420EFE7BC20002097
:10BAF000001001400405000000E100E070B51F4C9B
:10BB000082B063680600002B30D000282ED0436935
:10BB1000002B2BD06A460023D51D037428002B7000
:10BB200000F058FA6178A3784A1CD2B29B1A581ECA
:10BB300083415B421A402378934219D04B005B1833
:10BB40006168DB008C466344002B11D00221197020
:10BB50005E602878627000F05DFA8023802100200A
:10BB6000074A5B004903D15002B070BD0820FBE7D3
:10BB7000287800F04FFA0420F6E7C046BC200020E9
:10BB800000E100E0F8B54746CE4680B503792C4E7B
:10BB90005D009846EB189B000F00F1180400087A2E
:10BBA000002849D1002A49D0F2507B684B60637964
:10BBB000002B0DD00023002120689A0084464132DA
:10BBC000FF326244116001336279DBB29A42F3D8EA
:10BBD0002368F978180B40B200F02CFB012223688F
:10BBE0001849454458587B789043134003432068D4
:10BBF000AD004350A123DB009C46614623687519C4
:10BC00005858032399464946BB7888430B40034361
:10BC1000604621680B500F239C463B78674624689A
:10BC2000083021583B40B9430B43235000202A726F
:10BC30000CBC90469946F8BD0820F9E70720F7E7C5
:10BC4000DC20002004050000012203681A6002794C
:10BC500053009B18024A9B00D31802221A727047A5
:10BC6000DC200020012203681A607047012203686B
:10BC70005A60704701220368DA607047F0B5022706
:10BC800005AC2478FF37A44680248F400668A400C2
:10BC90003559BD43355105682E5933432B51802307
:10BCA00064465B028B40002C09D1C2240568A400C5
:10BCB0002B5151310368FF318900CA50F0BDC124B6
:10BCC0000568A4002B51F4E7F0B5C646104BC12718
:10BCD0000025984600B50F4C0F4EBF00E023DB0156
:10BCE000E018236880B2002B0BD04346DA5980233A
:10BCF0005B02AB401A4204D00023236071683368B2
:10BD0000984701350434042DE8D104BC9046F0BDB9
:10BD10000090004040910040DC200020002300B54E
:10BD200085B001AA9060002103481380536000F0A1
:10BD300005F805B000BDC04601400000BFF34F8FBD
:10BD4000034B044ADA60BFF34F8FC046FDE7C0469D
:10BD500000ED00E00400FA0500290CD0002A08D00C
:10BD6000531E1A4005D1826001608380C2600020AA
:10BD700070470920FCE70E20FAE7C04610B584683A
:10BD80008288C3681B1B9A4208D3C36813400268A9
:10BD9000D154C3680133C360002010BD0420FCE708
:10BDA0008268C3689A420AD0836882881340026816
:10BDB000D35C0B70836801338360002070470520DB
:10BDC000FCE7C04630B5047885B0012C22D0002CA9
:10BDD00011D0022C0DD102AB1C70C3680122254981
:10BDE00025480193039300F0FBFD244B02A81B6838
:10BDF000984705B030BD224C22482100FFF7D0FF04
:10BE0000002831D0032302AA13701C4B10001B68BA
:10BE10009847EEE743681C4D19782800FFF7AEFFFE
:10BE2000002816D002AB1C70144B03901B6802A8AC
:10BE30009847A968AA88EB685B1A9A4203D2012244
:10BE4000124B1A70D5E701220A490B4800F0C8FDD1
:10BE5000CFE7AA68EB689A42EBD002AB1870074BA9
:10BE600002A81B689847E4E701222100024800F07D
:10BE70002BFDBEE71021002064200020E8200020D8
:10BE80001421002000210020EC200020FC200020B4
:10BE9000F0B51E00254B89B005000C1E1A6043D07A
:10BEA0008A8823480968FFF757FF002801D009B0A6
:10BEB000F0BDA289A1681F48FFF74EFF0028F6D108
:10BEC00069460A001C4B91CB91C291CB91C211CB18
:10BED00011C26B698B612B7C0E775A1E93410B75D7
:10BEE0006B7C5A1E93410E225B4213404B75EB68EC
:10BEF0008B60AB68CB602B684B606B6800930F4C1A
:10BF00000F4A200000F03AFC0028D0D10D4B1870E9
:10BF10002B680133CBD0200000F042FE01220A49F9
:10BF2000200000F05DFDC2E70720C0E7E820002008
:10BF3000EC2000200021002040FC010064200020B3
:10BF4000C5BD0100FC2000201021002070B50B4C65
:10BF500001000B482678FFF723FF0500002E01D1D2
:10BF6000280070BD0023012206490748237000F015
:10BF700037FD0028F4D0FFF7D1FEF1E7FC200020C8
:10BF8000EC2000201021002064200020F8B50E4D88
:10BF900001002800FFF7F2FE041E01D02000F8BDCA
:10BFA0000A4E300000F00EFD0028F7D1084F28009F
:10BFB0003900FFF7F5FE0028F0D1012239003000EA
:10BFC00000F082FC0400E9E700210020642000204A
:10BFD00014210020F0B5EFF3108172B60A4B5A68B5
:10BFE000002A0DD101248025084E5C607459084F49
:10BFF0003C401C6077510270002900D162B6F0BD50
:10C0000001230370F8E7C0460428002000E100E0A7
:10C01000FC06FFBC10B5084B5A68002A0BD000285C
:10C0200009D1EFF3108272B604491C680C605860A5
:10C03000002A00D162B610BD0428002000E100E013
:10C04000002804D0034B5B6E036000207047032080
:10C05000FCE7C04618210020A022044BD205D3588B
:10C06000034A125C0120D340984370470405000046
:10C0700064FC0100044BA0211A5C01239340034A95
:10C08000C9058B507047C04664FC01000C050000D8
:10C09000044BA0211A5C01239340A122C905D200C0
:10C0A0008B50704764FC0100A022A1238021D2059F
:10C0B000DB008903D1508021C903D15080210904BC
:10C0C000D15080214904D1507047C046A022802120
:10C0D000064BD2058903D1508021C903D15080215C
:10C0E0000904D15080214904D15070470C0500004B
:10C0F000A02210B5074BD205D158074B185C01237D
:10C1000083401C00A1208C430B400449C000145004
:10C11000535010BD0405000064FC01000C05000034
:10C12000014B185C7047C04660FC010010B51A4B0B
:10C130001A68002A14D0002280211A60C22201232A
:10C14000164CC90592008B506370A368002B07D072
:10C150001A6800205B68A2609847A368002BF7D19B
:10C160000F4B1A68002A15D000221A608022C223C1
:10C1700002219B00D205D1500123084CA3702369F2
:10C18000002B07D01A6801205B6822619847236959
:10C19000002BF7D110BDC0460001004080210020D7
:10C1A0000401004010B500280BD1064CA368002BF9
:10C1B00007D01A6800205B68A2609847A368002B2C
:10C1C000F7D110BD8021002030B583B06B46DD1D56
:10C1D000002328002B70FFF7FDFE144C2378002B62
:10C1E00009D0E36828780133E3600123A370FFF7E7
:10C1F00011FF03B030BD6360A3602361E3600C4BAB
:10C200001B68DB070CD502F0C5FE002805D1802293
:10C21000A3230121D205DB00D15001232370E0E7E5
:10C220000321002000F006F8EDE7C0468021002041
:10C2300000E100E0FF22032330B51400C5B22B401B
:10C24000DB009C4089010A40E4439A40002814DB4B
:10C25000104B80089C46C023800060449B00C1585E
:10C260000C402243C2501F23C0211D401E3BAB4047
:10C27000084A49005350136030BD0F2306492B4034
:10C280008C46083B9B089B006344D9690C402243C1
:10C29000DA61E8E700E100E000ED00E0F0B5DE463D
:10C2A00057464E4645460021E0B5CB4A87B003913C
:10C2B00013680024012B00D148E1C84B1A68012AF9
:10C2C00000D150E1C64B1A68012A00D15BE1C54B91
:10C2D0001A68012A0FD0C44B1B68012B00D15EE104
:10C2E000230717D1002C34DB07B03CBC904699469D
:10C2F000A246AB46F0BDC122BC4992008958082233
:10C300000A42E8D000211960B74B14431B68012B87
:10C3100000D144E11F239946B54BA22701260025F1
:10C320009846FF0026420ED04946B04AAB009A1804
:10C33000D059000A0840D1594246D3588903890F81
:10C34000002B00D0984701357600042DEAD1002C4F
:10C35000CADA00230493013B059341339846C02673
:10C36000A34C4346E1564B1C2CD007230127C9B2EE
:10C3700008000B409F40B043C20805AB9B5C1F42C6
:10C3800020D0231820331B7889095BB29B00E35827
:10C390009B46002B00D16CE1032900D16CE1A02564
:10C3A000ED05A94683009944E0234D46DB00EB5898
:10C3B00003ADAA5C9B039B0F174200D027E1032B20
:10C3C00000D16DE100274123E1564B1C37D00723F4
:10C3D0000125C9B20B409D4008002B00B043C208A4
:10C3E00005ADAD5C2B422AD02518AC462025A946C8
:10C3F000CC4465462D7889096DB2AD00655901912F
:10C40000A946002D00D126E1032900D126E18500AF
:10C41000AA46A025ED05AC46E025ED00E244AC4679
:10C420005546614669588903890F8C4603A98A5C81
:10C43000134200D0F2E06346032B00D179E142239E
:10C44000E1564B1C37D007230125C9B20B409D4054
:10C4500008002B00B043C20805ADAD5C2B422AD0CA
:10C460002518AC462025A946CC4465462D78890977
:10C470006DB2AD0065590191A946002D00D101E1D1
:10C48000032900D101E18500AA46A025ED05AC46AF
:10C49000E025ED00E244AC46554661466958890303
:10C4A000890F8C4603A98A5C134200D084E063465E
:10C4B000032B00D126E14323E1564B1C36D0072342
:10C4C0000125C9B20B409D4008002B00B043C208B3
:10C4D00005ADAD5C2B4229D02518AC462025A946D8
:10C4E000CC4465462D7889096DB2AD00655901913E
:10C4F000A946002D00D1A0E0032900D1A0E08500CD
:10C50000AA46A025ED05AC46E025ED00E244AC4688
:10C510005546614669588903890F8C4603A98A5C90
:10C52000134267D16346032B00D1D2E0002F00D124
:10C53000DAE6A022A223D205DB00D358039A934265
:10C5400000D1D1E60393049B05930AE7C120274C51
:10C55000800024581C4000D1AFE6204B11601A68BF
:10C56000012A00D0AEE6C122204992008958022259
:10C570000A4200D1A6E600211960194B14431A683B
:10C58000012A00D0A3E6C12218499200895804224A
:10C590000A4200D19BE600211443196097E600226D
:10C5A000114B1A6080231B061C43A022A223D20534
:10C5B000DB00D358039393E66346022B00D07AE75F
:10C5C000019B032B00D1D3E04B46002B00D172E737
:10C5D0000199C8476FE7C046006100400461004010
:10C5E000086100400C6100407C6100400060004038
:10C5F000942100206346022B98D1019B032B00D18C
:10C60000AEE04B46002B91D00199C8478EE7022B34
:10C6100000D0D7E6032959D0002751E06346022B0A
:10C6200000D00CE7019B032B00D19DE04B46002B73
:10C6300000D104E70199C84701E7032900D075E755
:10C6400004A98C4694446146097819438A46614698
:10C6500055460D7053E7032900D0F0E604A98C4637
:10C6600094446146097819438A46614655460D70DF
:10C67000CDE6032900D0A5E604AB9B181D783D4309
:10C680001D708CE6032900D015E704A98C4694445C
:10C690006146097819438A46614655460D70F2E6AF
:10C6A0000329B9D180229202E0234D46DB00EF58E6
:10C6B000314D2F404D46EF50EF581743EF500127B3
:10C6C0005B46002B00D17EE6D8477CE6C022920272
:10C6D000EAE7019B032B94D180239B029C46E02335
:10C6E0005246DB00D258244901370A405146CA500D
:10C6F000CA5861460A435146CA504B46FFB2002B06
:10C7000082D116E7019B032B00D05DE780239B02BB
:10C710009C46E0235246DB00D258174901370A40B5
:10C720005146CA50CA5861460A435146FFB2CA50E0
:10C730004AE7019B032B00D078E780239B029C46AD
:10C74000E0235246DB00D2580B4901370A405146DC
:10C75000CA50CA5861460A435146FFB2CA5065E7FB
:10C76000C0239B029C46BAE7C0239B029C46E7E796
:10C77000C0239B029C46CCE7FFFFFCFFF8B5CE46EA
:10C78000474680B507794A4CFE00F31B9B00E3182F
:10C79000DB7E050091460820002B5DD10B685A1CFA
:10C7A0000DD007389840A1220300A020D200C00578
:10C7B000835003220B68C133FF339B001A504B6830
:10C7C0005A1C06D0A0200022C133FF339B00C005B5
:10C7D0001A5028688A69374BC250087D4B7D2A68F9
:10C7E0000343354813500A682B68944633484A6817
:10C7F0001A50624632481A500B7D012B30D04A46FF
:10C80000F31B9B00E01842600A69E2504B46002B84
:10C8100012D08E22002328685200097F8350286896
:10C8200028328350C1232868264A9B00C2502B68B7
:10C83000180B40B2FFF7FEFCA02304212A68DB009E
:10C84000D150002301220020F61BB600A419E37585
:10C850002376A375E276A3760CBC90469946F8BD84
:10C860008B685A1C06D0A0200022C133FF339B00E6
:10C87000C0051A50CB685A1C0ED001209840A12246
:10C880000300A020D200C00583500322CB68C1332F
:10C89000FF339B001A50CB688A6828689446A1220F
:10C8A000D2008350A2236246DB00C250A7E7C046F5
:10C8B000DC210020240500006C05000014050000A8
:10C8C0000C05000080000200F0B5DE4657464546E4
:10C8D0004E463A4BE0B59B4604791127E3001B1BFB
:10C8E0009B005B449D7D002D23D18E249D82996009
:10C8F0009A75037901229846036864001D51036804
:10C9000000279A6043464246DB009A1A92005A4436
:10C910009C469368016899460D514D46938AED5C9B
:10C92000938A01339BB29382254BCD505368002BE1
:10C9300006D038003CBC90469946A246AB46F0BDB6
:10C940008025977D6D001100938A1431BB421CD263
:10C95000016802E0938AAB4202D00B59002BF9D058
:10C96000938AAB42EFD000234E460B51938AF35C7F
:10C970009A465646938A01339BB29382104BCE500F
:10C980001100938A1431BB42E2D380230A885B00F2
:10C990009A4211D08E21026849005358002BFCD0D6
:10C9A00001230027D360634642469B1A9B005B44E9
:10C9B0001E000023B375BCE70F27F4E7DC2100203D
:10C9C0001C0500000279D3009B1A044A9B00D3186F
:10C9D000987D431E9841C0B27047C046DC210020BC
:10C9E000F0B5574645464E46DE46E0B506796B4CF7
:10C9F000F3009D1BAD0065196F6883B08A469046B1
:10CA0000002F09D0C22281259200AD009146AC468C
:10CA10004946624605686A509B1B9B00E318DD7D12
:10CA2000002D0DD01D7E002D30D0002F00D1AFE0A5
:10CA3000C123812102689B008900D15011231DE090
:10CA40004246DA7552465D76DA601D760579EB006E
:10CA50009C465B1B9B00E3189B7E002B00D18BE068
:10CA600063465A1B9200A21853680168002B1CD021
:10CA7000C12381229B009200CA500023180003B0FA
:10CA80003CBC90469946A246AB46F0BD52461A6160
:10CA900042461A7605790168EB009C4663465A1BAC
:10CAA0009200A2185368002BE2D1A22676008B5187
:10CAB000922149008B460E39FF398946023184277D
:10CAC0008A46904603687F000196914492445A46F4
:10CAD00001999A58DE595958002E1AD1002942D08E
:10CAE0001C23904600226B43E318DA754246032369
:10CAF000002AC3D10C330029C0D16246551BAD00BA
:10CB00006419A27E0368002A44D001221A6000231F
:10CB1000B4E716000E43E3D14A46117800290CD140
:10CB2000D951A3214246C9005B58537E6346002277
:10CB30005B1B9B00E318DA75DFE7A3215246DE5149
:10CB4000C90012785B584146C9688B545346524617
:10CB50001B780133DBB2137013784A4612789A427D
:10CB6000E4D90368B3E7002AB1D063465D1BAD008A
:10CB70006419E175032381E79222016852008B500A
:10CB800001681C3A8B500368083AFF3A1A6067E75D
:10CB9000112373E701225A6000236FE7DC21002094
:10CBA00010B501790C4ACB005B1A9B00D3189B7E11
:10CBB000002B10D1922104684900635004681C398D
:10CBC000635003680839FF3919600079C3001B1AE4
:10CBD0009B00D218917610BDDC210020C12330B516
:10CBE000614A9B00D35885B09B055ED592235B00BC
:10CBF000D158002959D00021D1508121E533FF338C
:10CC00008900D150594B997E002901D101315160E1
:10CC1000022269460A7090215348C9004258425086
:10CC200069460392DA7D68460A72DA6819680192E9
:10CC30000022DA751A765B6898478E214A4A4900C5
:10CC40005358002B12D0494B9C8A987D844257D36D
:10CC500000245450002809D06A46107214709A6853
:10CC60009C75196801925B6868469847A2233E4A02
:10CC70005B00D158002916D00021D1503B4B997E42
:10CC8000002901D001211160DA7D002A0BD0002299
:10CC900068460121DA755A7E01700272DA681968F5
:10CCA00001925B68984705B030BDC1232E4A9B00B6
:10CCB000D3585B07C1D5842149005358002BBCD001
:10CCC0002A4BD87D002827D15050A321C9005258A3
:10CCD0005A7E8242B1D11A7E1968002A2AD0DA75AA
:10CCE0001A69D868DA6000226D465C7E1A765A7638
:10CCF000013201902A702C725B68684698479CE765
:10CD000000205050998A9868405C998A013189B214
:10CD10009982174BD050A9E700205050A320C000A3
:10CD2000597E1258D86842545A7ED87D0132D2B208
:10CD30005A76CDE79A7E002A02D101200A4A506035
:10CD4000C222812408489200A400845000226C462C
:10CD50000120DA755A7E20702272DA6868460192E4
:10CD60005B68984769E7C04600200040DC2100204E
:10CD70001C05000070B5864B05001B680024DB070E
:10CD800001D4200070BD834E3378002B06D1172DBF
:10CD900000D9FAE0804AAB00D3589F463470FFF7C1
:10CDA00083F9F4E7012301203370FFF7A1F97B4BEE
:10CDB00000221B687A489900C918FEF73DFE04005E
:10CDC000DFE7012301203370FFF792F9734B002254
:10CDD00019687348FEF730FE0400D2E70020FFF721
:10CDE00049F907226F4B00241A70CAE70020FFF7A9
:10CDF00033F9002800D1AFE00020FFF749F9052200
:10CE0000684B67481A70654B002219684900FEF7A5
:10CE100013FE0400B5E70020FFF76AF90622614B14
:10CE20001A70D3E7FFF740F900225E4B00241A7016
:10CE3000A7E70020FFF710F9002800D195E00020B7
:10CE4000FFF726F9A91E4B1E99414B4216211940A6
:10CE50001231544B00221D70504B51481B685943EE
:10CE6000FEF7EAFD04008CE70020FFF7F5F8002844
:10CE700000D185E00020FFF70BF908200322494B81
:10CE80001A70464B0022196841434548FEF7D4FD0D
:10CE9000040076E70020FFF7DFF8002860D00020CC
:10CEA000FFF7F6F828203F4B0422E9E7FFF7FCF8EC
:10CEB0000020FFF7DFF80120FFF7DCF81522394BDF
:10CEC00000241A705DE7384E3000FEF717FE0400AC
:10CED0001120451B3CD0002C3AD1012D0CD0B7308D
:10CEE0006421684302F0F4F82C4B00221968414396
:10CEF0003000FEF7A1FD04000220FFF7BBF840E779
:10CF0000FFF7D2F81222274B00241A7039E7FFF7F7
:10CF1000CBF80020FFF7AEF81322224B00241A7042
:10CF20002FE7FFF7C1F80120FFF7A4F814221D4BEB
:10CF300000241A7025E7FFF7C9F81A4B00241D706A
:10CF40001FE7FFF7C3F80C22164B00241A7018E7EE
:10CF50000220FFF79DF814E70020FFF78BF84EE75B
:10CF60000020FFF787F804209DE70020FFF782F8F4
:10CF7000A91E4B1E99414B4202211940023168E71C
:10CF80000020FFF777F8022078E70024F9E6C04692
:10CF9000282200202C22002068FC010018220020FA
:10CFA0003022002050220020F8210020032807D83A
:10CFB000012A07D001290BD0002916D002290DD053
:10CFC0000720704700220129F4D102000E32D2B2AC
:10CFD00043001818084BC2540020F2E743001B1806
:10CFE0000548C01842700020EBE743001B180248B8
:10CFF000C01882700020E4E71C22002010B5FFF763
:10D000008FF8A023DB059C46E02380006044DB0012
:10D01000C25805490A40C250C022C15892020A4370
:10D02000C250002010BDC046FFFFFCFF10B500201D
:10D03000FFF7E4FF002802D0062800D010BD012031
:10D04000FFF7DCFF0028F9D0831F5A1E93415B4293
:10D050001840F3E710B50388102B08D0112B05D129
:10D06000294A1368013B1360002B07D010BD264CE2
:10D070002368002B11D001332360F7E7012202213E
:10D080000020FFF793FF00282BD0072829D01F4B43
:10D090001B68002BEAD09847E8E701220021002016
:10D0A000FFF784FF002808D0072806D0174B1B681D
:10D0B000002B00D098472368DDE7072202210120DA
:10D0C000FFF774FF002801D00728EFD104220221C6
:10D0D0000020FFF76BFF0028EDD00728E6D123687A
:10D0E000C9E7072202210120FFF760FF002801D0D5
:10D0F0000728CCD10A2200210020FFF757FF002883
:10D10000B4D00728C3D1B1E7582200205422002010
:10D1100076DF70477ADF70477CDF70477FDF7047CC
:10D12000A8DF7047A9DF704767DF70473CDF7047B3
:10D1300048DF70477047C04610B5FEF7EFFD10BDE1
:10D1400010B5040084B001F03BFC2100374801F029
:10D150006BFD2388132B5FD00FD9512B46D030D9CC
:10D16000522B24D0552B0ED1A0881321FFF7D0FFCE
:10D17000002808D0FEF7D2FD05E0102B24D0112B9B
:10D1800009D0022B2BD0200001F0F6FA2000FFF787
:10D1900061FF04B010BD0020FFF7ECFD002801D0B6
:10D1A000FEF7BCFD0122224B52421A80EBE7204BD6
:10D1B0000022188800210023FFF7B4FF0028E2D0E6
:10D1C000D8E73A2BD0D0DEE70720FFF7D3FD0028C1
:10D1D00001D0FEF7A3FDA288154B1A80D3E7A088E3
:10D1E0000021FFF7A1FF0028CDD0C3E7A379002BD2
:10D1F000C9D0A27B043A022AC5D8022B00D0012351
:10D200006A461370C1235B009380A0886946FFF7CC
:10D2100087FF0028B7D0ADE7054B0022188885218D
:10D220000023FFF77BFF0028ADD0A3E71C230020DD
:10D230007020002010B50378002B00D010BD054BE6
:10D240003B211888FFF764FF0028F7D0FEF766FD42
:10D25000F4E7C0467020002010B582B06A4603781B
:10D26000D41D002B04D008E02178012000F04CFAF6
:10D270002000FEF76BFE0028F6D002B010BDC046BD
:10D2800010B5002807D0032804D10138FFF772FD3C
:10D2900000280DD110BD0020FFF76CFD00280AD139
:10D2A000FFF7C4FE00280CD1FFF740FF0028F1D0A3
:10D2B000FEF734FDEEE7FEF731FDFFF7B7FE00287D
:10D2C000F2D0FEF72BFDEFE7F0B50023ABB0664AD6
:10D2D00005210020FEF708FB002801D0FEF71EFD07
:10D2E00000F030FB614E1BAC2300320023CA23C385
:10D2F00023CA23C35E4B5F4A0C9380230CAD5B00B3
:10D300006B60AA60EB605C4AFD3B29002000FEF7E1
:10D31000BFFD002801D0FEF701FDB3694822039349
:10D320000C9356490023280001F03AFE002801D052
:10D33000FEF7F4FC22000121002001F0A3FE0028EA
:10D3400001D0FEF7EBFC200001F0B4FE002801D074
:10D35000FEF7E4FC4A4801F073FE002801D0FEF716
:10D36000DDFC1123474E2B70300002F063F83100D2
:10D3700082B22800FFF7D0FE002801D0FEF7CEFCD5
:10D38000082200212000FDF735FF3F4B20001B93B2
:10D39000C8235B041C93FFF7BDFE002801D0FEF7F5
:10D3A000BDFC002104222000FDF724FF374B2100A3
:10D3B00037481B9301F06AFC002801D0FEF7AEFC51
:10D3C0003C2200212800FDF715FF022300272B70C7
:10D3D0003C22033300212000EB70AF70FDF70AFF01
:10D3E000012304AE23822B4B2022002130006361F5
:10D3F000FDF700FF0123F370402333617433736141
:10D4000032000097244B2100280001F0BDF80028CD
:10D4100001D0FEF783FC1C2200212000FDF7EAFE6C
:10D42000A02292026260F02200231203A260032273
:10D430001B93E3812374194B20006361184B227303
:10D44000A36101F081FA002801D0FEF767FC0320F8
:10D4500001F072F9002803D1FFF76AFE0028FBD023
:10D46000FEF75CFCF8E7C0465C220020C8FC010027
:10D47000382300203824002059D20100D422002073
:10D4800041D10100E4FC010010003C0035D1010055
:10D490001C2300206C20002081D2010035D2010025
:10D4A00039D10100004870471C230020014B188827
:10D4B0007047C0467020002070B54578002D09D017
:10D4C000040045192078FEF761FD0028FAD10134E7
:10D4D000AC42F7D170BDC04670B501283BD027DD06
:10D4E000022815D0032812D1244C651D2078FEF7A0
:10D4F0004DFD0028FAD10134AC42F7D10422204B73
:10D5000020491A60013000231F4AFDF7B3FE70BDA9
:10D510001E4C251D2078FEF739FD0028FAD1013474
:10D52000AC42F7D10323184A1949FDF7A3FEEEE7F1
:10D530000028ECD10121174B174A4942D150A022B3
:10D540008021D2050904D15000200123134A10493B
:10D55000FDF790FEDBE7A022A1238021D205DB00AE
:10D560000904D15017210C4A0A4B0020D150022344
:10D570000B4A0749FDF77EFEC9E7C046E8FC0100FB
:10D5800044250020A5D50100D430000000FD010095
:10D59000D9D401000C050000002000405C440000CC
:10D5A000F47E0000F8B5FFF781FF4A4B4A4C9842E1
:10D5B0004AD0206800282DD1A022A1238021D205A5
:10D5C000DB008902D1500130642101F0F1FE434BB0
:10D5D00021601A68002A26D1A022A1238021DB0025
:10D5E000D2050903D150FFF761FF3A4B984227D08B
:10D5F0003B4D2B68002B2DD13A4A3B4913603B4AE7
:10D60000002013603A4A13603A4AFDF733FE0123C3
:10D610002B60F8BD5A28D6D1A0228021364BD205E6
:10D620008902D150CFE7A0218020334AC9050003E9
:10D63000885000221A60FFF739FF264B9842D7D155
:10D640000022274B1A60E4E720680028B4D0622843
:10D65000E2D0B8E7234E3368032BD8DD24490A68AB
:10D660000132312A34DD00220A60042B0ED0052B52
:10D67000CDD1224C671D2078FEF788FC0028FAD116
:10D680000134BC42F7D104233360C0E7174A136862
:10D6900001331360052BBADD194F1A4A40213800B7
:10D6A00001F096FE380001F0C5FE041E0DD02600E4
:10D6B000142C00DD1426FFF7F5FE3900B2B201F09C
:10D6C000C3FBA41BBF19002CF1D100232B60A0E7E2
:10D6D0000A609CE7FFFF000040250020382500205D
:10D6E0007825002044250020D9D4010048250020B9
:10D6F0003C250020C40900000C050000F0FC0100DE
:10D700007C25002018FD0100F8B5DE4657464E4640
:10D7100045460300E0B5022837D07D4D2C6800282F
:10D720002AD1032C2ADD7B490A680132312A4ADDDD
:10D730000860042C49D1784A136801331360052B23
:10D740001CDD764E764A4021300001F041FE30006B
:10D7500001F070FE041E0DD02500142C00DD1425F0
:10D76000FFF7A0FE3100AAB201F06EFB641B761930
:10D77000002CF1D1002002E0042C0FD001203CBC91
:10D7800090469946A246AB46F8BD0023604A012068
:10D790001360614A13605F4A1360F0E7012BCAD13E
:10D7A000604A106801284DD002281ED00028E5D11B
:10D7B0005D4C5E4803602068451C25605C4C21542C
:10D7C00013600120DBE70A60D8E7052CD6D1594C5D
:10D7D000661D2078FEF7DAFB0028FAD10134A64254
:10D7E000F7D1042301302B60C9E74F4B524F9C46C1
:10D7F00066461868431C33604D4E315439688B427D
:10D80000BCDB73789846012B7CDD711E4144894650
:10D81000330000211878013309189945FAD143469D
:10D82000F318013B49421B78C9B2994218D0002332
:10D830001360052261462A60374A0B603B60012075
:10D8400013609CE73C4FCB1E39601D2B15D8364C1E
:10D8500023685D1C2560364CE154022313608EE77B
:10D86000002361463B600B6013603378022B07D0C6
:10D870000022294B2C601A6080E72B4B9C46D6E790
:10D88000B378002B3AD0712BF2D13A22234B9B462E
:10D890001A704346002B16D05B005A1C98465B4614
:10D8A00094465A1C0F2330009946244FDC440178DB
:10D8B00001300B09FB5C13704B461940795C5170C9
:10D8C00002326245F3D14746D8460137B946142F94
:10D8D00001DD14239946FFF7E5FD4B4641469AB218
:10D8E00001F0B2FA4B46C844FF1AEFD1F378112B7E
:10D8F0000AD0F378D12BBBD10524B9E70D48FFF747
:10D90000DBFDB5E700218AE70D48FFF7D5FDF0E71D
:10D91000442500203C250020482500207C250020AF
:10D9200018FD0100742500206C25002038250020FA
:10D930004C250020F0FC01007025002004FD0100B2
:10D94000F8FC0100A023EB220C21DB05D20010B56E
:10D95000995004210D4AFF319950A1228021D20013
:10D960000904995003210A4819500A481950802186
:10D9700089029950802109039950FDF761FC002329
:10D98000054A06490120FDF775FC10BD5C07000043
:10D99000440700004C070000D4300000A5D501006A
:10D9A00071DF704772DF704779DF70477DDF704746
:10D9B00065DF7047F0B5DE4657464E464546E0B552
:10D9C00087B09B4610AB914604CB07001B880291A1
:10D9D00001931388904603930388002B00D169E0DC
:10D9E00000239A4604AB0024DD1C03E03B8801348D
:10D9F000A3422EDD7B68A1009C460422614405A859
:10DA000001F0DCFC0022290005A8FFF7D1FF061E6B
:10DA10002CD12B784B45E9D1434651461A884B46C9
:10DA20009B1800292AD00199994241DB5A442900C8
:10DA300005A8FFF7BDFF002838D142462B78128891
:10DA400001349B184246138001239A463B88A34227
:10DA5000D0DC5346002B2DD043461B88039A013B54
:10DA60009B1A9BB2FF2B23D859468B54300007B02A
:10DA70003CBC90469946A246AB46F0BD01990233A4
:10DA8000994215DB43460132694692B21A805B46E1
:10DA9000097A05A8995443461A882900013292B29E
:10DAA0001A805A44FFF784FF0028C6D00600DDE73D
:10DAB0000C26DBE70026D9E7F0B557464E4645462B
:10DAC000DE460023E0B5178813802D331400C25CB6
:10DAD00085B005000E000023002A00D0C3E0AA781C
:10DAE000002A00D0C9E0E978002914D0DA1CBA4233
:10DAF00000D9BAE00222F2542388013A01339BB2E2
:10DB00002380F254238801339BB22380F15423886D
:10DB100001339BB223806A68002A15D0D91CB94210
:10DB200000D9A2E002211278F15423880831013390
:10DB30009BB22380F154238852B201339BB22380DD
:10DB4000F2542388013323802B89002B00D0E2E09C
:10DB50002B8A002B00D0F7E02B8B002B00D00DE19F
:10DB60002B6A002B42D02088821DBA4200D97CE06B
:10DB70001A889046052A00D8CBE0B44AB4494244FA
:10DB800092B289468A4200D8C3E05A88052A00D852
:10DB9000BFE0AE498C469444614689B2494500D8FD
:10DBA000B7E0AC49884504D08A4202D0904500D9FC
:10DBB000AFE00522122132542288013292B2228033
:10DBC000B1542288013292B222801988B2181170A1
:10DBD000090A51702288023292B222805988B21802
:10DBE0001170090A51702388023323806B6A9846AA
:10DBF000002B2ED09A882088911C831C5B18BB4276
:10DC000033D8FE2931D803323254FF22238801331E
:10DC10009BB22380F2544246238801339BB2238077
:10DC20001288F3181A70120A5A704346208802307C
:10DC300080B220809A88002A0BD09968002900D1F0
:10DC400067E0301801F0BAFB4246238892889B189F
:10DC500023802C23EB5C002B00D0A9E02B78002B39
:10DC600053D1002002E0082F28D80C2005B03CBC7E
:10DC700090469946A246AB46F0BD04330C20BB4209
:10DC8000F4D802A8FFF790FE0028EFD103222388E2
:10DC9000F2542388163201339BB22380F2546A4631
:10DCA0002388128901339BB22380F3181A70120A59
:10DCB0005A70238802339BB2238014E702A8FFF72F
:10DCC0006FFE0028D2D10822092123886944F2542A
:10DCD0002388133201339BB22380F2542088153AF3
:10DCE000013080B22080301801F068FB6A4623883A
:10DCF000127A06339BB22380002A00D0DBE0F25474
:10DD0000238801339BB22380E9E62A88012A00D0C8
:10DD1000A2E00720AAE708239846A84401970094A8
:10DD20003300022202214046FFF744FE00289DD125
:10DD3000019700943300102206214046FFF73AFE77
:10DD4000002800D104E791E710239846A8440197E2
:10DD500000943300022203214046FFF72BFE0028E7
:10DD600000D083E70197009433001022072140463A
:10DD7000FFF720FE002800D1EEE677E7182398464B
:10DD8000A844019700943300022214214046FFF773
:10DD900011FE002800D069E701970094330010229B
:10DDA00015214046FFF706FE002800D1D8E65DE7C2
:10DDB000AB6A9846002BACD09B880233FE2B00D96F
:10DDC00053E7002291461632924616329346208837
:10DDD000524601333354238801339BB22380F254DB
:10DDE0004246238801339BB223801288F3181A70AD
:10DDF000120A5A7043462088023080B220809A88E6
:10DE0000002A0CD09968002900D182E7301801F06F
:10DE1000D5FA434620889B88C01880B220804B46A4
:10DE20000133DBB299465B46EB5C4B4500D815E706
:10DE30004B46AA6A5B0090464B449B00984443467D
:10DE40009B880233FE2BC3D90FE7C0467FF3FFFF49
:10DE50007DF30000FFFF00002288901CB84200D92B
:10DE600003E7012B05D16B7802339B189F4200D248
:10DE7000FBE66B46023FBF1ABFB2301802A91F81F2
:10DE8000FFF794FD002800D0F0E62B78022B1AD083
:10DE9000012B12D00822FE2F00D9E6E62388791C38
:10DEA000F154238801339BB22380F2542388013339
:10DEB000FF182780DAE6012221E76B789F42E9D339
:10DEC0001F000822E7E76B461B899F42E2D31F0031
:10DED0000922E0E7F0B557464546DE464E46E0B536
:10DEE00095B01F236A4604000F0003ADD3810028BC
:10DEF00025D0C1784B072AD500232B802D33C35C56
:10DF0000002B00D037E18378002B39D10322002386
:10DF10000020904604AE022232540122581C0233E3
:10DF20009BB280B23254F15443469BB22B8062685C
:10DF3000002A59D0D91C1F2946D90C2008E00026F8
:10DF40002880002F00D111E1FB78002B07D007209B
:10DF500015B03CBC90469946A246AB46F0BD0E3388
:10DF60006B441A000CA93800FFF7A6FD0028EFD17A
:10DF70006B469B7B0CAA29783000FFF713FDE7E77F
:10DF80000CAB98464046FFF70FFD0028E0D1032276
:10DF900019212B8804AEF2545A1C92B2B154424655
:10DFA00011889A1C92B2B2181170090A5170043388
:10DFB0009BB2E1782B800029B9D0DA1C180090467A
:10DFC0001F2AA8D90C20C3E71278298052B29146A3
:10DFD0000222F2545A1C92B290460A22404632540F
:10DFE0004A4602339BB2F2542389002B00D0F3E05F
:10DFF000238A002B00D057E1238B002B00D070E147
:10E00000236A002B3DD02A88911D8A461F2900D9FA
:10E0100093E7188805289AD9CB498C4684446146F1
:10E0200089B28C46C94988468C4500D88FE7598803
:10E030008C46052900D88AE7C349614489B2414525
:10E0400000D884E7C249884204D08C4502D060459C
:10E0500000D97CE705201221B054501C80B2315405
:10E06000901C80B22880198830180170090A41700C
:10E0700004325B8892B2B21813701B0A5370534675
:10E080002B80636A9846002B2ED09B882A88981C88
:10E090009946931CC1181F2900D94EE7FE2800D9C4
:10E0A0004BE74946FF200331B154511C89B27054EB
:10E0B00041462B801B0409881B0CF3181970090AB0
:10E0C00059704346043290B228809A88002A0BD0B7
:10E0D0009968002900D13AE7301801F06FF94246FB
:10E0E0002B8892889B182B802C23E15C002900D080
:10E0F0008FE02378002B00D123E72288012A00D16A
:10E1000025E72A88901C1F2800D916E7012B04D187
:10E1100063781B181F2B00D90FE71D239A1A93B29F
:10E1200099464A460CAB3018190098461A80FFF7FA
:10E130003DFC002800D00BE72378022B00D1F2E051
:10E14000012B00D1F7E043464A4608211A804B468E
:10E15000FE2B00D9F1E64A462B880132F2545A1CB4
:10E16000023392B24B44B1542B80EAE66B46002254
:10E17000DF810023FFE60CAB18009846FFF710FC88
:10E18000002800D0E4E608221B212B8804AEF254BC
:10E190005A1C92B2023398B2B1541631288006222A
:10E1A0006944301801F00AF941462B8809789A1D14
:10E1B00092B22A80002900D0B2E0B2181170073361
:10E1C000A2789BB22B80002A00D1A7E004330C2058
:10E1D0001F2B00D9BCE6D5E6082398461733A04488
:10E1E0009946019300953300022202214046FFF731
:10E1F000E1FB002800D0ABE64B46009501931022CE
:10E20000330006214046FFF7D5FB002800D1EFE69A
:10E210009EE6A36A9846002B00D198E69B880233BD
:10E22000FE2B00D989E6002291461632924616321C
:10E23000288893460CE04B46A26A5B0090464B440C
:10E240009B00984443469B880233FE2B00D974E61A
:10E25000524601333354431C9BB2F2544246831C52
:10E260009BB22B801288F3181A70120A5A70434618
:10E27000043080B228809A88002A0ED0996800293C
:10E2800000D164E6301801F099F8434628889B884D
:10E29000C0185B4680B2E15C28804B460133DBB29C
:10E2A00099468B42C7D324E7102398460F33A044E6
:10E2B0009946019300953300022203214046FFF75F
:10E2C00079FB002800D043E64B46009501931022CD
:10E2D000330007214046FFF76DFB002800D18BE695
:10E2E00036E6182398460733A044994601930095D3
:10E2F0003300022214214046FFF75CFB002800D0C7
:10E3000026E64B4600950193102233001521404626
:10E31000FFF750FB002800D172E619E6E1784AE6E3
:10E320000121B1544BE743461B88994500D20AE7C7
:10E33000994609210BE76378994500D203E74246E5
:10E3400099461380082102E77FF3FFFF7DF3000069
:10E35000FFFF000073DF7047F0B57F4C072287B0E6
:10E36000060000212000FCF745FF7C4D7C4B2A680D
:10E370007C4F1A4202D03B78012B38D0AB78002B6F
:10E3800032D16378002B64D1A378002B61D1E3787C
:10E39000002B5ED12379002B5BD16379002B58D100
:10E3A000A3795A1E9341DBB2022E55D0022E29D9F1
:10E3B000032E2ED0042E02D12B79002B53D1002610
:10E3C0003E700022684B1A70182200216846FCF744
:10E3D00011FF00236A46137013723B78042B28D870
:10E3E000624A9B00D3589F463B78022BC9D1604BB1
:10E3F000604A1B68002B00D1ACE00121082011709D
:10E400009847BEE7012EDAD16A78002A24D0002B83
:10E41000D6D1EB78002BCFD0032325E00222564B38
:10E4200001941A706A4601231370EB685382AB683B
:10E4300013826846FFF78EFF002808D14C4B1B68FB
:10E44000002B00D182E04C4A10789847002007B09A
:10E45000F0BD0123022EA9D1AA78002AD9D0002B21
:10E46000D7D00226ACE704233B70414B1B68002B3E
:10E47000A7D02A78002AA4D0404A1278002AA0D136
:10E480000121394A0720117098479DE76A462B6998
:10E4900013826B6953822B78002B4FD0374B1B783C
:10E4A000002B4BD1364B1A79002A02D11A7B002A55
:10E4B00044D003936A460223324813720021023388
:10E4C000C370FFF707FD002842D105222A4B1A70BE
:10E4D0003B7826E00022284B1A70AFE76A46AB690A
:10E4E0001382EB6953822B78002B2BD0234B1B78A4
:10E4F000002B27D1224B1A79002A02D11A7B002A3D
:10E5000020D003936A4602231E481372002102336F
:10E51000C370FFF7DFFC00281AD10622164B1A70D1
:10E520003B78002B00D189E783E70123124A01944D
:10E5300013706A461370002304937AE703220E4B8C
:10E540001A7076E704220C4B1A7072E700207EE7FF
:10E550003B78E6E7137014E79C260020C0250020D6
:10E5600000FFFF00BD2500208C27002020FD0100BA
:10E570002426002098260020BC2500208D2700207E
:10E5800074200020E0250020F8B504000E000028CB
:10E5900000D1AEE0002A00D1ABE00120564908705E
:10E5A00000205649087056480100A1CAA1C1A1CA5D
:10E5B000A1C121CA21C1534A00211360524B069ABE
:10E5C00052481A600122524B52421A800832FCF71C
:10E5D00011FE504D00213C222800FCF70BFE237851
:10E5E00022002B70A3781032AB70E378EB70637865
:10E5F0006B702B00103303CA03C32B00103A08338F
:10E6000003CA03C32B000832183303CA03C3636A67
:10E61000002B11D0404B414F6B62616A9F600A88AA
:10E620001A8088889880002806D000238A68D25CE7
:10E63000FA5401339842F9D8A36A002B14D0384B0E
:10E64000384FAB62A16A9F60888898800A881A80D8
:10E65000002806D000238A68D25CFA540133834232
:10E66000F9D32C23E25CEA54236A002B06D02E4B0C
:10E670002B62226A5188598012881A806368002BA5
:10E6800000D06B6029492A4B0A68D81D13600A68BC
:10E69000506018000E30906018001530D0601800DF
:10E6A0001C30106118002330506118003133D361E1
:10E6B000204B2A30906118008A68103013608A68F5
:10E6C000506018008A68203090608A6819003031E4
:10E6D000D1601900403111611900503151611900A8
:10E6E000703360319161D36131002800FFF7F2FB94
:10E6F000F8BD0E20FCE7C04628260020BD250020DE
:10E70000C025002024260020202600209C26002052
:10E710001E260020E02500204C2600202C2600206C
:10E72000A4260020B0260020D0260020742000203F
:10E73000D42600200C27002010B50C4B04001B78B9
:10E7400082B00820002B0BD0094B01A81C70FDF7EC
:10E7500077FC019B002B05D001220020054B1A708D
:10E7600002B010BD2000FFF7F7FDF9E728260020D2
:10E77000BD2500201C26002030B5038883B0112B56
:10E7800025D01B2B0AD0102B01D003B030BD837DC8
:10E79000012BFAD18288224B1A80F6E7037A002BEC
:10E7A000F3D1204B1B78002B2CD01F4D052128784E
:10E7B000013000F0FDFD01A8CCB22C70FDF740FC4B
:10E7C000019B002B25D00122184B1A70DDE7002198
:10E7D000174A83881170124A12889A42D5D1114B78
:10E7E0001B78002B0ED001220F4B01A81A70FDF7E9
:10E7F00027FC019B002BE6D10120FFF7ADFD00288F
:10E8000001D1C2E708200B4B1B68002BBDD09847F5
:10E81000BBE72000FFF7A0FD0028F4D1B5E7C04614
:10E820001E26002028260020BD2500201C260020B2
:10E830008D2700202026002075DF704776DF704787
:10E840007ADF70477BDF704710B5184B82B01888AD
:10E85000174B984214D0174A174C13780133DBB288
:10E860001370217B99420DD200231370237C002B5F
:10E8700012D16369002B03D0002201A802709847CF
:10E8800002B010BD0D49FFF7D7FF0028F8D0A369EB
:10E89000002BF5D09847F3E73B21FFF7CFFF002887
:10E8A000E7D0A369002BE4D09847E2E79027002047
:10E8B000FFFF0000E027002094270020D827002039
:10E8C00030B51B4B1B4A5B88118883B099420CD82A
:10E8D00052889A4209D3184B5B69002B03D001225E
:10E8E00001A802709847154C0BE0144C2378002BBC
:10E8F0000BD0114B5B69002B03D0002201A80270E2
:10E9000098470023237003B030BD0D4B0A4D1B7890
:10E91000002B0BD0A96800220A48FDF78DF80028CB
:10E92000EFD0AB69002BECD09847EAE76968F2E7D3
:10E93000D0270020D8270020942700208E270020F1
:10E94000E0270020B0270020164902000B0070B518
:10E9500032CA32C332CA32C312681A600022124B62
:10E9600001681A70002916D0104C0832200000F0FF
:10E9700025FD2000FFF764FF00280BD101220C4B7E
:10E9800052421A8000220B4B00211A700A480B4A8F
:10E99000FDF73CF870BD0548FFF754FF0028EDD0A7
:10E9A000F8E7C046942700208E270020D8270020B3
:10E9B00090270020E027002034FD010049E80100F5
:10E9C00030B5038883B0112B37D023D9122B08D050
:10E9D000502B04D13B4CC288E3899A424CD003B0FF
:10E9E00030BD394B08301A0012C812C2374A5B8852
:10E9F0001188994233D9364C2378002B4ED0314BB5
:10EA00005B69002B03D0002201A802709847002305
:10EA10002370E4E7102BE2D182882E4B18301A8045
:10EA2000294B06C806C300222B4B1A70254BDB89E5
:10EA3000002BD4D1FFF744FFD1E70122254B5242EE
:10EA40001A800022244B25481A70FDF757F8002839
:10EA5000C5D01C4B9B69002BC1D09847BFE752889B
:10EA60009A42C8D3174B5B69002B03D0012201A83F
:10EA700002709847164CCAE7038A022BAFD11230B6
:10EA800000F02EF80028D5D11448FDF737F80028FB
:10EA9000A5D0A369002BA2D09847A0E70E4B094D43
:10EAA0001B78002B0BD0A96800220C48FCF7C4FF90
:10EAB0000028ACD0AB69002BA9D09847A7E76968BC
:10EAC000F2E7C04694270020D0270020D827002056
:10EAD0008E27002090270020E0270020B02700206C
:10EAE000012300781840704703210A4802680A434E
:10EAF0000260094802680A4302600849084A094B53
:10EB00009B1A03DD043BC858D050FBDC00F012F820
:10EB1000FCF7FAFA240500405405004088FD010086
:10EB20000020002090200020FEE7FEE7FEE7FEE741
:10EB3000FEE7FEE72E4B1B78012B00D070472D4BD4
:10EB40001B681B07FAD1F0222B4B1B68134027D1FF
:10EB50002A4B1B6813422BD0264B1B681B07EDD199
:10EB6000F022254B1B681340402B2DD0F022224B66
:10EB70001B681340A02B01D0D02BDFD1F0231F4AFC
:10EB800012681A42DAD11E4A1368012B04D01D4BB9
:10EB900013601368012BFCD1C0221B4B1A60CDE718
:10EBA000102B01D0302BDBD1144B1B681342D7D173
:10EBB000164B174A1A608022164B12021A600C4B31
:10EBC0001B78012BC8D0B9E70C4B1B681342CDD181
:10EBD0008022C1230121DB00D205D150044B1B78D8
:10EBE000012BABD1034B1B681B07BFD0A6E7C04668
:10EBF000E00F00F0E40F00F0E80F00F0EC0F00F081
:10EC000000EC06407593000014EC0640040500403B
:10EC1000DFFF07C0186C0040A0DF7047A2DF70471D
:10EC2000A6DF704763DF704710B5041E08D00029C7
:10EC300006D00B88112B04D0502B09D0102B04D0F8
:10EC400010BD01235B428382FAE78B888382F7E75A
:10EC5000CB88028A9A420AD0A2889A42F0D1A3694C
:10EC6000002BEDD00A8A200012319847E8E70A8A83
:10EC7000022AF1D112310800FFF732FF002802D03A
:10EC80000123A375DCE7A075DAE7C046F0B5574667
:10EC90004E464546DE46E0B595B0040004A80200A5
:10ECA000674BE0CBE0C21B681360002C00D1C5E0CD
:10ECB000002900D1C2E001235B42A3820B6821003E
:10ECC000A3610023A375FFF7ADFF071E07D038002F
:10ECD00015B03CBC90469946A246AB46F0BD2378A1
:10ECE00002A98B700123A21C012099460B80FFF71B
:10ECF00093FF071EEBD1032200216846FCF77AFA46
:10ED000002216A4688464F4B41461380937806227B
:10ED100093430B4369460DAD8B70163200212800DA
:10ED2000FCF768FA10218B4659462B7801AE0B434D
:10ED30002B706B4669466B61237803228B73032328
:10ED400030008B8100216F60EF602F61AF61FCF7B5
:10ED500051FA01239A465B4651460B4333705B469A
:10ED600006220B437370B37808A8934342461343BB
:10ED700008229343083293430B4314220021B370BB
:10ED8000FCF738FA03AB08934B4614220A936B4600
:10ED90009A85230060880C3308AA29000996FFF79A
:10EDA0003DFF071E93D11C2200212800FCF722FA08
:10EDB00008222B7800211343042213436A462B7048
:10EDC0002378300093730223938103226F60EF60F6
:10EDD0002F616F61AF61FCF70DFA0F225146337856
:10EDE00008A893430B43594613400B4351463370D5
:10EDF000737893430B4313405A46134306227370B0
:10EE0000B378934342461343082293430832934313
:10EE10000B4314220021B370FCF7ECF903AB089309
:10EE20004B4614220A936B469A856088231D08AAD4
:10EE300029000996FFF7F2FE070048E70E2746E78C
:10EE400038FD01001111000070B586B06B4604005A
:10EE50000E00DA80002821D0828A114B9A421BD002
:10EE6000837D002B18D06B46DB880720142B11D82C
:10EE700002AD002110222800FCF7BCF9A389A08A6A
:10EE80002B806B460633AB6001232900EE60AB702C
:10EE9000FFF7C6FE06B070BD0820FBE70E20F9E7BD
:10EEA000FFFF000052DF704710DF704760DF7047E0
:10EEB00061DF704710B5FCF741FF10BDF0B5574654
:10EEC0004E464546DE46E0B52D4B2E4E1D68994612
:10EED0006B425D412C4B2D4F98462D4B83B09A468B
:10EEE000EDB23478E4B2002C26D101A8FFF7DAFFA6
:10EEF000052835D0002826D0FCF710FF002D2DD195
:10EF00003578EDB2002D17D143466A461B8801A91A
:10EF100093803B6818009B46FFF7CAFF052823D063
:10EF2000002824D14B4658461B689847002CD8D05F
:10EF300033780124002BE7D003B03CBC90469946BF
:10EF4000A246AB46F0BD0198FDF72CF953461B686D
:10EF5000002B11D001989847002DD1D00125C0E792
:10EF6000002DE9D10124CBE7002CF7D0E4E7FCF732
:10EF7000D5FE002CDCD1B4E7002DC1D00125B0E7CF
:10EF8000E4270020ED270020E2270020F4270020BE
:10EF9000F0270020014B1878C0B27047EC27002002
:10EFA00070B5002930D0032421422DD101261C4DFB
:10EFB00029601C491C4D0A801C4A13602B681E42A4
:10EFC00008D080231A49EE50FFF76EFF002806D0C4
:10EFD0002E6070BD1649FFF767FF0028F9D1154B69
:10EFE0001E70FDF7F1F8C5239B00EB589B0D1C40EC
:10EFF000E30712D5104B5A68002A07D180220A4B2A
:10F00000D2031A600020E4E70720E2E780221968B3
:10F01000D2030A431A600020DBE70848D9E7C0465C
:10F02000F4270020E227002000E100E0E82700208C
:10F03000B5EE0100EC27002004280020022000008B
:10F04000002803D0024B1860002070470E20FCE718
:10F05000E427002010B5094B1B68002B06D0984709
:10F06000002800D110BDFCF759FEFBE7044B1B78CC
:10F07000002BF7D0FFF722FFF4E7C046E827002077
:10F08000EC27002070B5140005000E0014220021AA
:10F090002000FCF7AFF8002301222361237B2280AC
:10F0A0009343237326726572002D01D00123A3724E
:10F0B000002070BD00B5054B83B00193019B6946EC
:10F0C0000093FFF7F3FE019B03B000BD002000207A
:10F0D000002243088B4274D303098B425FD3030A97
:10F0E0008B4244D3030B8B4228D3030C8B420DD3AA
:10F0F000FF22090212BA030C8B4202D31212090238
:10F1000065D0030B8B4219D300E0090AC30B8B4275
:10F1100001D3CB03C01A5241830B8B4201D38B0323
:10F12000C01A5241430B8B4201D34B03C01A5241C8
:10F13000030B8B4201D30B03C01A5241C30A8B420B
:10F1400001D3CB02C01A5241830A8B4201D38B02F6
:10F15000C01A5241430A8B4201D34B02C01A52419A
:10F16000030A8B4201D30B02C01A5241CDD2C3090C
:10F170008B4201D3CB01C01A524183098B4201D388
:10F180008B01C01A524143098B4201D34B01C01A73
:10F19000524103098B4201D30B01C01A5241C308EB
:10F1A0008B4201D3CB00C01A524183088B4201D35A
:10F1B0008B00C01A524143088B4201D34B00C01A46
:10F1C0005241411A00D20146524110467047FFE7B2
:10F1D00001B5002000F0F0F802BDC0460029F7D0CC
:10F1E00076E7704703460B437FD4002243088B42E7
:10F1F00074D303098B425FD3030A8B4244D3030BBE
:10F200008B4228D3030C8B420DD3FF22090212BA82
:10F21000030C8B4202D31212090265D0030B8B42FE
:10F2200019D300E0090AC30B8B4201D3CB03C01AE8
:10F230005241830B8B4201D38B03C01A5241430BC3
:10F240008B4201D34B03C01A5241030B8B4201D3B3
:10F250000B03C01A5241C30A8B4201D3CB02C01A1E
:10F260005241830A8B4201D38B02C01A5241430A96
:10F270008B4201D34B02C01A5241030A8B4201D385
:10F280000B02C01A5241CDD2C3098B4201D3CB012C
:10F29000C01A524183098B4201D38B01C01A5241DB
:10F2A00043098B4201D34B01C01A524103098B42DF
:10F2B00001D30B01C01A5241C3088B4201D3CB00CA
:10F2C000C01A524183088B4201D38B00C01A5241AD
:10F2D00043088B4201D34B00C01A5241411A00D25D
:10F2E00001465241104670475DE0CA0F00D04942C6
:10F2F000031000D34042534000229C4603098B4236
:10F300002DD3030A8B4212D3FC22890112BA030ABD
:10F310008B420CD3890192118B4208D3890192113F
:10F320008B4204D389013AD0921100E08909C309C4
:10F330008B4201D3CB01C01A524183098B4201D3C6
:10F340008B01C01A524143098B4201D34B01C01AB1
:10F35000524103098B4201D30B01C01A5241C30829
:10F360008B4201D3CB00C01A524183088B4201D398
:10F370008B00C01A5241D9D243088B4201D34B00B3
:10F38000C01A5241411A00D20146634652415B10F5
:10F39000104601D34042002B00D5494270476346D6
:10F3A0005B1000D3404201B5002000F005F802BD1B
:10F3B0000029F8D016E770477047C046002310B503
:10F3C0009A4200D110BDCC5CC4540133F8E7000070
:10F3D0000CB430B5164B9DB00C1E1D6808DA8B239B
:10F3E00001202B6040421DB030BC08BC02B0184761
:10F3F000822302A99B008B810023029008619C421A
:10F4000000D0631E8B604B6101235B42CB81209A4D
:10F4100021AB2800019300F077F8431C01DA8B231D
:10F420002B60002CDFD00023029A1370DBE7C0466C
:10F43000002000200023C25C0133002AFBD1581EAB
:10F4400070470000F0B58E6885B007000C0003928D
:10F4500001939E423CD890238A89DB001A4234D023
:10F460000325096923685B1A0293636902985D4367
:10F47000EB0F5D19019B6D1001331B18AB4200D9D6
:10F480001D00530532D52900380000F019FB061E77
:10F4900009D10C233B6040230120A2894042134341
:10F4A000A38105B0F0BD029A2169FFF787FFA38908
:10F4B000144A1A4080231343A381029B2661F61845
:10F4C00026606561019EED1AA560019B9E4200D9F0
:10F4D000019E32000399206800F095FAA36800208D
:10F4E0009B1BA36023689E192660DAE72A00380078
:10F4F00000F044FB061EE0D12169380000F096FAC6
:10F50000C7E7C0467FFBFFFFF0B59FB002900593B1
:10F510008B890F0016001B0611D50B69002B0ED12D
:10F52000402100F0CDFA38603861002805D10C2365
:10F53000029A013813601FB0F0BD40237B610023A5
:10F5400006AC6361203363761033A37635002B78E5
:10F55000002B01D0252B46D1AB1B04930CD03200DD
:10F5600039000298FFF76EFF431C00D1AEE06269DC
:10F57000049B9446634463612B78002B00D1A5E083
:10F58000012200235242626002A9543252186E1CBA
:10F590002360E360A3601370A365317805225448AB
:10F5A00000F026FA751C00281FD12268D30604D566
:10F5B000532302A95B1820211970130704D5532384
:10F5C00002A95B182B21197033782A2B16D035002D
:10F5D00000210A20E3682A786E1C303A092A4ED9A5
:10F5E000002918D010E00135B1E7414B2268C01A5C
:10F5F00001238340134323602E00CEE7059B191D92
:10F600001B680591002B01DB099304E05B42E3607A
:10F610000223134323602B782E2B0AD16B782A2BDD
:10F6200035D1059B02351A1D1B680592002B2BDB7B
:10F630000793304E29780322300000F0D9F90028D2
:10F6400006D04023801B834022680135134323608A
:10F650002978062228486E1C217600F0C9F9002876
:10F660003CD0264B002B25D10722059B0733934323
:10F67000083305936369039A9B18636166E7434304
:10F6800001219B183500A6E701235B42D0E7002348
:10F690000A201A000135636029786E1C3039092967
:10F6A00003D9002BC5D00792C3E742430123521868
:10F6B0003500F1E705AB00933A00114B21000298A9
:10F6C00000E000BF0390039B0133D3D1BB890B98AB
:10F6D0005B0600D42FE7012040422CE705AB0093E6
:10F6E0003A00074B2100029800F07AF8EAE7C0469A
:10F6F00048FD01004EFD010052FD01000000000028
:10F7000045F40100F7B5150001938A680B69009074
:10F710000C00934200DA130022002B60433212786F
:10F72000002A01D001332B6023689B0602D52B6889
:10F7300002332B60062723681F4027D02300433362
:10F740001B785A1E93412268920630D422000199F8
:10F7500043320098089EB047431C25D006232068FA
:10F760002A68E16803400025042B03D18D1AEB437E
:10F77000DB171D40A3682269934201DD9B1AED1837
:10F780000027BD4220D1002010E00137E3682A683D
:10F790009B1ABB42D2DD2200012319320199009845
:10F7A000089EB047431CF0D101204042FEBD3020EE
:10F7B000E1184331087021005A1C45310978A2181C
:10F7C000433202331170C1E7220001231A3201993A
:10F7D0000098089EB047431CE6D00137D1E70000EF
:10F7E000F0B589B004920A00433205930390029267
:10F7F0000A7E0C000E9B6E2A00D186E01FD8632A79
:10F8000033D008D8002A00D18CE0582A4DD02500EA
:10F8100042352A7030E0642A01D0692AF7D119688C
:10F8200025680A1D280629D508681A60002803DA09
:10F830002D23029A404213706B4E0A274FE0732A21
:10F8400074D008D86F2A1FD0702AE0D1202209680E
:10F850000A43226003E0752A16D0782AD7D1220005
:10F86000782145321170614E22E025001A68423538
:10F87000111D196013682B70012365E008681A6078
:10F880006906D3D500B2D1E719682568081D18604C
:10F8900008682E0605D5544E08276F2A1BD00A2764
:10F8A00019E06D06F7D580B2F5E745314E4E0A7086
:10F8B00018682268011D00681960150621D5D30754
:10F8C00002D520231A4322601027002803D12023C9
:10F8D00022689A4322602300002243331A7063682F
:10F8E000A360002B58DB042221689143216000288B
:10F8F00054D1029D002B5AD02500337842352B700D
:10F9000055E05506DBD580B2D9E71A680D68101DA1
:10F910004969186013682E0601D5196002E06D066A
:10F92000FBD519800023029D23614FE01A68111D49
:10F930001960156800216268280000F059F8002855
:10F9400001D0401B6060636823610023029A13703A
:10F950003CE023692A0004990398059DA847431CAD
:10F960003ED023689B0715D4079BE068984239DA9C
:10F97000180037E022000123193204990398059EEC
:10F98000B047431C2CD00135E368079A9B1AAB4261
:10F99000F0DCE9E70025F7E70028ADD0029D39004B
:10F9A000FFF71CFC735C013D2B700028F7D1082F7A
:10F9B00009D12368DB0706D563682269934202DC1C
:10F9C0003023013D2B70029B5B1B2361059B07AA23
:10F9D00000932100049B0398FFF794FE431CB8D1C9
:10F9E0000120404209B0F0BD59FD01006AFD01004F
:10F9F000C9B28218904201D10020704703788B422F
:10FA0000FBD00130F6E710B5884202D98B18984236
:10FA100003D3002307E08B5C8354013AFBD210BD73
:10FA2000CC5CC45401339A42FAD1F8E770B50500B2
:10FA3000002910D00C1F2368002B00DAE4182800DE
:10FA400000F0D4F81D4A1368002B05D163601460E0
:10FA5000280000F0CCF870BDA34209D921686018D5
:10FA60008342F3D118685B6841182160EEE7130008
:10FA70005A68002A01D0A242F9D919685818A04240
:10FA80000BD120680918581819608242E0D110681B
:10FA90005268411819605A60DAE7A04202D90C2373
:10FAA0002B60D5E721686018824203D11068526844
:10FAB0004118216062605C60CAE7C046F8270020F8
:10FAC000032370B5CD1C9D43083506000C2D1ED2B6
:10FAD0000C25A9421DD8300000F088F8254A14688A
:10FAE0002100002919D1244C2368002B03D13000B8
:10FAF00000F06AF820602900300000F065F8431C2F
:10FB00002BD10C233000336000F071F803E0002D9E
:10FB1000DFDA0C233360002070BD0B685B1B19D447
:10FB20000B2B03D90B60CC18256003E04B688C428B
:10FB30000DD11360300000F05AF8200007220B307E
:10FB4000231D9043C31AE7D05A42E250E4E76360B2
:10FB50000C00EFE70C004968C3E70323C41C9C4377
:10FB6000A042E1D0211A300000F02EF8431CDBD176
:10FB7000C7E7C046F8270020FC270020F8B507009B
:10FB80000D001600002905D11100FFF799FF0400B0
:10FB90002000F8BD002A03D1FFF748FF3400F7E743
:10FBA00000F026F82C00B042F2D231003800FFF706
:10FBB00087FF041EECD029003200FFF7FFFB29006D
:10FBC0003800FFF733FFE3E7002370B5064C05006C
:10FBD0000800236000F014F8431C03D12368002BB5
:10FBE00000D02B6070BDC0460C28002070477047C5
:10FBF0000B1F1B68181F002B01DA0B58C018704729
:10FC0000044A1368002B00D1034B18181060180029
:10FC10007047C0460028002010280020F8B5C046D4
:10FC2000F8BC08BC9E467047F8B5C046F8BC08BC96
:10FC30009E46704704200020009000400004000011
:10FC4000FFFFFFFFFFFFFFFFFFFFFFFFFFFFFFFFC4
:10FC5000000000000000000000E0D70103000000E9
:10FC6000111213141516171824CE010032CE0100FC
:10FC700032CE010068CE010094CE0100ECCD01002F
:10FC800016CE0100DCCD0100C2CD0100A4CD0100E3
:10FC9000C2CD0100A4CD010042CF0100C6CE0100BB
:10FCA000C6CE0100C6CE0100C6CE0100C6CE010000
:10FCB00000CF01000ECF010022CF0100ACCE010029
:10FCC00036CF010036CF01001600000017000000FB
:10FCD000FFFFFFFFFFFFFFFF0000000000A02A0062
:10FCE0000100000745435500720500F0990000002F
:10FCF0007205711107000000720571D14700000004
:10FD0000FE04FFFF30313233343536373839414263
:10FD10004344454600000000237265696E69740023
:10FD2000D4E401002AE501001CE401008CE4010098
:10FD3000DCE40100B02700209ECADC240EE5A9E027
:10FD400093F3A3B50000406E232D302B2000686C88
:10FD50004C006566674546470030313233343536EE
:10FD60003738394142434445460030313233343527
:10FD70003637383961626364656600000000000050
:08FD800088B3FF7F01000000C1
:10FD88000420002000000000000000000000000027
:10FD9800000000000000000000000000000000005B
:10FDA800000000000000000000000000000000004B
:10FDB800000000000000000000000000000000003B
:10FDC800000000000000000000000000000000002B
:10FDD800000000000000000000000000000000001B
:10FDE80000000000002000400000000001000200A8
:10FDF800FFFF0000582600200000000078260020A1
:10FE0800000000000024F400E9B00100C1B00100C6
:040000031000EAE916
:00000001FF
